S00E000042757A7A65722E7372656394
S113000012C02CC02BC02AC029C028C027C026C0BB
S113001025C024C023C022C021C020C01FC01EC0D0
S11300201DC01CC01BC011241FBECFE5D4E0DEBF21
S1130030CDBF10E0A0E6B0E0E0E9F0E002C005903A
S11300400D92A036B107D9F710E0A0E6B0E001C0E8
S11300501D92A036B107E1F702D018C0D1CF84E0D9
S113006081BB82BB2FE33DE043E021503040404060
S1130070E1F700C0000012BA2FE33DE043E0215055
S113008030404040E1F700C00000EBCFF894FFCFD0
S9030000FC
